:100000000BC100001FC600004EC600007DC60000E8
:10001000ACC60000DBC600000AC7000039C70000FC
:1000200068C7000029C1000027C100000C94600AC5
:1000300023C10000A8C500001FC100001DC10000B1
:100040001BC1000019C1000017C1000015C100004C
:1000500013C1000011C100000FC100007BC70000E8
:100060000BC10000EFC1000022C2000005C100006A
:1000700003C1000001C10000FFC00000FDC000007E
:100080000C949F0AF9C00000F7C00000F5C0000002
:100090006DC20000A0C20000EFC000000C94BB17AE
:1000A000EBC00000E9C00000E7C00000E5C00000B0
:1000B000E3C00000E1C00000DFC00000DDC00000C0
:1000C000DBC00000D9C00000D7C00000E3C20000C0
:1000D00016C30000D1C0000071C30000A4C300001B
:1000E000CBC00000C508C808B708BB08C108FF0896
:1000F000CC08D008D608DA08DE08E408E808EC08DE
:10010000FF08F208F608FA08BD0CCD0CE80C0F0D3C
:10011000230D370D470D540D0200000A0B02090C88
:100120000D0E08070304010000000000000000009D
:1001300000000000000000000000000000000000BF
:10014000000000000012111000000000000000007C
:10015000000000000000000000000000000000019E
:1001600002102020080810204010204080020102C8
:100170000108040201010204081020408080402090
:1001800010080402018004020180402010080402CB
:100190000108040201010204081020408001020449
:1001A0000810204080050505050705080808080215
:1001B0000202020A0A080804040404010101010100
:1001C0000101010303030303030303040707070CEF
:1001D0000C0C0C0C0C0C0C020202020606060606A5
:1001E0000606060B0B0B0B0B0B0B0B00002200255E
:1001F0000028002B002E0031003400020100000511
:100200000108010B010089021D03B1034504B2047A
:100210009F0ECD103C17A01911241FBECFEFD1E2C5
:10022000DEBFCDBF00E00CBF12E0A0E0B2E0E0E234
:10023000F8E300E00BBF02C007900D92A434B107B1
:10024000D9F72EE0A4E4B2E001C01D92AD3DB207A3
:10025000E1F711E0CCE0D1E000E006C02197010910
:10026000802FFE010E94D81BC330D10780E0080711
:10027000A9F784D30C940E1CC3CEFC01918D828D02
:10028000981B892F90E00895FC01918D828D98171D
:1002900031F0828DE80FF11D858D90E008958FEF8C
:1002A0009FEF0895FC01918D828D981759F0828DF2
:1002B000DF01A80FB11D5D968C91928D9F5F928F8B
:1002C00090E008958FEF9FEF089580E892E0892BEA
:1002D00039F080E090E0892B19F012D1811122C011
:1002E00084E193E0892B39F080E090E0892B19F0CC
:1002F0009BD181111AC088EA93E0892B39F080E004
:1003000090E0892B19F024D2811112C08CE394E083
:10031000892B99F080E090E0892B79F0ADD28111A2
:100320000AC008950E940000DBCF0E940000E3CFC6
:100330000E940000EBCF0C9400000895FC01848D16
:10034000DF01A80FB11DA35EBE4F2C91848D90E0FC
:100350000196848FA689B7892C93A089B1898C9145
:1003600080648C93938D848D981306C00288F389E2
:10037000E02D80818F7D80830895CF93DF93EC0102
:10038000888D8823C1F0EA89FB89808185FD05C0BD
:10039000A889B9898C9186FD0EC00FB607FCF5CFF0
:1003A000808185FFF2CFA889B9898C9185FFEDCF37
:1003B000CE01C4DFE8CFDF91CF910895EF92FF9295
:1003C0000F931F93CF93DF93EC0181E0888F9B8D78
:1003D0008C8D981305C0E889F989808185FD21C03D
:1003E000F62E0B8D10E00F5F1F4FE02E8C8DE81264
:1003F0000BC00FB607FCFACFE889F989808185FF29
:10040000F5CFCE019BDFF2CF8B8DFE01E80FF11D02
:10041000E35EFE4FF0820B8FEA89FB898081806268
:1004200007C0EE89FF896083E889F989808180644B
:10043000808381E090E0DF91CF911F910F91FF9039
:10044000EF9008951F920F920FB60F9211240BB6E2
:100450000F922F938F939F93EF93FF93E09154020A
:10046000F09155028081E0915A02F0915B0282FD89
:1004700011C0908180915D028F5F20915E02821792
:1004800051F0E0915D02F0E0EC5BFD4F958F8093C1
:100490005D0201C08081FF91EF919F918F912F911B
:1004A0000F900BBE0F900FBE0F901F9018951F92CC
:1004B0000F920FB60F9211240BB60F922F933F930A
:1004C0004F935F936F937F938F939F93AF93BF935C
:1004D000EF93FF9384E492E031DFFF91EF91BF91BE
:1004E000AF919F918F917F916F915F914F913F91CC
:1004F0002F910F900BBE0F900FBE0F901F9018956D
:1005000084E492E0BADE21E0892B09F420E0822F16
:100510000895E4E4F2E01382128288EE93E0A0E012
:10052000B0E084839583A683B7838AE092E09183C9
:10053000808385EC90E09587848784EC90E09787B2
:10054000868780EC90E0918B808B81EC90E0938BA0
:10055000828B82EC90E0958B848B86EC90E0978B7D
:10056000868B118E128E138E148E08951F920F9209
:100570000FB60F9211240BB60F922F938F939F9368
:10058000EF93FF93E0917104F09172048081E09108
:100590007704F091780482FD11C0908180917A04F3
:1005A0008F5F20917B04821751F0E0917A04F0E094
:1005B000EF59FB4F958F80937A0401C08081FF91A2
:1005C000EF919F918F912F910F900BBE0F900FBEC7
:1005D0000F901F9018951F920F920FB60F92112433
:1005E0000BB60F922F933F934F935F936F937F932D
:1005F0008F939F93AF93BF93EF93FF9381E694E024
:100600009DDEFF91EF91BF91AF919F918F917F916F
:100610006F915F914F913F912F910F900BBE0F9073
:100620000FBE0F901F90189581E694E026DE21E022
:10063000892B09F420E0822F0895E1E6F4E013828B
:10064000128288EE93E0A0E0B0E084839583A683D5
:10065000B7838AE092E0918380838DEC90E0958768
:1006600084878CEC90E09787868788EC90E0918B6C
:10067000808B89EC90E0938B828B8AEC90E0958B59
:10068000848B8EEC90E0978B868B118E128E138E5E
:10069000148E08951F920F920FB60F9211240BB66D
:1006A0000F922F938F939F93EF93FF93E0918E067A
:1006B000F0918F068081E0919406F091950682FD7D
:1006C00011C09081809197068F5F209198068217C4
:1006D00051F0E0919706F0E0E258F94F958F809342
:1006E000970601C08081FF91EF919F918F912F918B
:1006F0000F900BBE0F900FBE0F901F9018951F927A
:100700000F920FB60F9211240BB60F922F933F93B7
:100710004F935F936F937F938F939F93AF93BF9309
:10072000EF93FF938EE796E009DEFF91EF91BF9183
:10073000AF919F918F917F916F915F914F913F9179
:100740002F910F900BBE0F900FBE0F901F9018951A
:100750008EE796E092DD21E0892B09F420E0822FDC
:100760000895EEE7F6E01382128288EE93E0A0E0AF
:10077000B0E084839583A683B7838AE092E0918377
:10078000808385ED90E09587848784ED90E097875E
:10079000868780ED90E0918B808B81ED90E0938B4C
:1007A000828B82ED90E0958B848B86ED90E0978B29
:1007B000868B118E128E138E148E08951F920F92B7
:1007C0000FB60F9211240BB60F922F938F939F9316
:1007D000EF93FF93E091AB08F091AC088081E0913A
:1007E000B108F091B20882FD11C090818091B408E7
:1007F0008F5F2091B508821751F0E091B408F0E0C6
:10080000E556F74F958F8093B40801C08081FF9122
:10081000EF919F918F912F910F900BBE0F900FBE74
:100820000F901F9018951F920F920FB60F921124E0
:100830000BB60F922F933F934F935F936F937F93DA
:100840008F939F93AF93BF93EF93FF938BE998E0C0
:1008500075DDFF91EF91BF91AF919F918F917F9146
:100860006F915F914F913F912F910F900BBE0F9021
:100870000FBE0F901F9018958BE998E0FEDC21E0E9
:10088000892B09F420E0822F0895EBE9F8E0138228
:10089000128288EE93E0A0E0B0E084839583A68383
:1008A000B7838AE092E09183808385E391E0958726
:1008B000848784E391E09787868780E391E0918B3A
:1008C000808B81E391E0938B828B82E391E0958B27
:1008D000848B86E391E0978B868B118E128E138E1C
:1008E000148E089508958F929F92AF92BF92CF92E7
:1008F000DF92EF92FF920F931F93CF93DF937C01D0
:100900008B016C0182E0C80ED11C4701E5E08E0E20
:10091000911CC0E0D0E0F60161916F014AE050E027
:10092000C801DDD05C016EE2C80171D08A0D9B1D4B
:10093000C80FD91FC814D90471F74AE050E0F70175
:100940006581C801CCD08C0F9D1FDF91CF911F9185
:100950000F91FF90EF90DF90CF90BF90AF909F905E
:100960008F900895E8EBFAE08AE192E0918380832A
:1009700012821382148215820895089589D3FDDFAF
:100980000E94A319C5E6D1E00E94BE192097E1F3A9
:100990009CDCFACFCF92DF92EF92FF920F931F93DE
:1009A000CF93DF936C01EB017B01E40EF51E00E0B9
:1009B00010E0CE15DF0561F06991D601ED91FC9153
:1009C0000190F081E02DC6011995080F191FF1CF94
:1009D000C801DF91CF911F910F91FF90EF90DF90B1
:1009E000CF9008956115710579F0FB010190002009
:1009F000E9F73197AF01461B570BDC01ED91FC91F4
:100A00000280F381E02D199480E090E00895DC01EC
:100A1000ED91FC910190F081E02D19948F929F92BD
:100A2000AF92BF92CF92DF92EF92FF920F931F93FC
:100A3000CF93DF93CDB7DEB7A1970FB6F894DEBFA3
:100A40000FBECDBF6C01142FE52FCB01022F19A2D1
:100A5000223008F40AE07E0121E2E20EF11C802E31
:100A6000912CA12CB12C612F7E2FA50194010E9405
:100A7000B61B029F1019112481E0E81AF1081A3000
:100A800010F4105D01C0195CF7011083122FE32FE1
:100A9000CA01232B242B252B31F7B701C601A2DF76
:100AA000A1960FB6F894DEBF0FBECDBFDF91CF91F8
:100AB0001F910F91FF90EF90DF90CF90BF90AF907C
:100AC0009F908F9008952115310541F4DC01ED913F
:100AD000FC910190F081E02D642F19949FCF9A0131
:100AE000462F50E060E070E0EECF8230A9F028F4AD
:100AF000882349F0813051F00895843021F1E8F0E5
:100B0000853039F1089510926E00089580916F003C
:100B10008D7F80936F000895809170008D7F80930A
:100B2000700081E08093B0008091B100887F846084
:100B30008093B1001092B3000895809171008D7F71
:100B4000809371000895809172008D7F8093720070
:100B50000895809173008D7F809373000895CF93E3
:100B6000C82F809100028C1307C0E8E1F1E0E49106
:100B70008FEF8093000201C0EFEF8E2FB6DF60E0B1
:100B80008C2FCF913DC31F920F920FB60F9211245D
:100B90000BB60F922F933F934F935F936F937F9377
:100BA0008F939F93AF93BF93EF93FF938091C10A6D
:100BB0009091C20AA091C30AB091C40A892B8A2BD2
:100BC0008B2B51F18091BE0AE091BF0AF091C00ACF
:100BD0009081892780838091C10A9091C20AA09157
:100BE000C30AB091C40A181619061A061B06BCF4EB
:100BF0008091C10A9091C20AA091C30AB091C40A1F
:100C00000197A109B1098093C10A9093C20AA093E8
:100C1000C30AB093C40A03C080910002A0DFFF9111
:100C2000EF91BF91AF919F918F917F916F915F9164
:100C30004F913F912F910F900BBE0F900FBE0F90D1
:100C40001F9018951F920F920FB60F9211240BB69A
:100C50000F922F933F934F935F936F937F938F9355
:100C60009F93AF93BF93EF93FF938091C90A9091A5
:100C7000CA0A892B29F0E091C90AF091CA0A19958C
:100C8000FF91EF91BF91AF919F918F917F916F9164
:100C90005F914F913F912F910F900BBE0F900FBE20
:100CA0000F901F9018951F920F920FB60F9211245C
:100CB0000BB60F922F933F934F935F936F937F9356
:100CC0008F939F93AF93BF93EF93FF938091CB0A42
:100CD0009091CC0A892B29F0E091CB0AF091CC0AB3
:100CE0001995FF91EF91BF91AF919F918F917F9156
:100CF0006F915F914F913F912F910F900BBE0F908D
:100D00000FBE0F901F9018951F920F920FB60F9263
:100D100011240BB60F922F933F934F935F936F93D2
:100D20007F938F939F93AF93BF93EF93FF938091A4
:100D3000CD0A9091CE0A892B29F0E091CD0AF0914D
:100D4000CE0A1995FF91EF91BF91AF919F918F912D
:100D50007F916F915F914F913F912F910F900BBEBB
:100D60000F900FBE0F901F9018951F920F920FB605
:100D70000F9211240BB60F922F933F934F935F93D3
:100D80006F937F938F939F93AF93BF93EF93FF9353
:100D90008091CF0A9091D00A892B29F0E091CF0A57
:100DA000F091D00A1995FF91EF91BF91AF919F916A
:100DB0008F917F916F915F914F913F912F910F9004
:100DC0000BBE0F900FBE0F901F9018951F920F92A1
:100DD0000FB60F9211240BB60F922F933F934F93A0
:100DE0005F936F937F938F939F93AF93BF93EF9393
:100DF000FF938091C50A9091C60A892B29F0E09152
:100E0000C50AF091C60A1995FF91EF91BF91AF9174
:100E10009F918F917F916F915F914F913F912F9112
:100E20000F900BBE0F900FBE0F901F9018951F9242
:100E30000F920FB60F9211240BB60F922F933F9380
:100E40004F935F936F937F938F939F93AF93BF93D2
:100E5000EF93FF938091C70A9091C80A892B29F0DC
:100E6000E091C70AF091C80A1995FF91EF91BF91DF
:100E7000AF919F918F917F916F915F914F913F9132
:100E80002F910F900BBE0F900FBE0F901F901895D3
:100E90001F920F920FB60F9211240BB60F922F9341
:100EA0003F934F935F936F937F938F939F93AF93F2
:100EB000BF93EF93FF938091D10A9091D20A892B2F
:100EC00029F0E091D10AF091D20A1995FF91EF91A2
:100ED000BF91AF919F918F917F916F915F914F9152
:100EE0003F912F910F900BBE0F900FBE0F901F9050
:100EF00018951F920F920FB60F9211240BB60F92F6
:100F00002F933F934F935F936F937F938F939F9311
:100F1000AF93BF93EF93FF938091D30A9091D40A3C
:100F2000892B29F0E091D30AF091D40A1995FF9109
:100F3000EF91BF91AF919F918F917F916F915F9151
:100F40004F913F912F910F900BBE0F900FBE0F90BE
:100F50001F9018951F920F920FB60F9211242F9386
:100F60003F938F939F93AF93BF938091D60A9091B5
:100F7000D70AA091D80AB091D90A3091D50A2DE2AA
:100F8000230F2D3720F40196A11DB11D05C020EBC4
:100F9000230F0296A11DB11D2093D50A8093D60A76
:100FA0009093D70AA093D80AB093D90A8091DA0A0D
:100FB0009091DB0AA091DC0AB091DD0A0196A11D97
:100FC000B11D8093DA0A9093DB0AA093DC0AB093F8
:100FD000DD0ABF91AF919F918F913F912F910F901B
:100FE0000FBE0F901F9018952FB7F8946091D60AF6
:100FF0007091D70A8091D80A9091D90A2FBF08958D
:101000009FB7F8944091DA0A5091DB0A6091DC0AAC
:101010007091DD0A86B5A89B06C08F3F21F04F5F17
:101020005F4F6F4F7F4F9FBF762F652F542F442701
:101030009A01AB01280F311D411D511DA5E0B0E003
:101040000C94E01B0895CF92DF92EF92FF92CF9322
:10105000DF936B017C01D4DFEB01C114D104E10407
:10106000F10479F03FDCCCDF6C1B7D0B683E7340F4
:10107000A0F381E0C81AD108E108F108C851DC4F9B
:10108000ECCFDF91CF91FF90EF90DF90CF9008955C
:10109000789484B5826084BD84B5816084BD85B553
:1010A000826085BD85B5816085BDEEE6F0E080811A
:1010B00081608083E1E8F0E010828081826080833B
:1010C000808181608083E0E8F0E0808181608083BE
:1010D000E1EBF0E0808184608083E0EBF0E08081F0
:1010E00081608083E1E9F0E080818260808380819B
:1010F00081608083E0E9F0E0808181608083E1EAC3
:10110000F0E0808182608083808181608083E0EA7A
:10111000F0E0808181608083E1E2F1E080818260A3
:101120008083808181608083E0E2F1E08081816062
:101130008083EAE7F0E08081846080838081826040
:10114000808380818E7F80838081806880831092FD
:10115000C100089590E0FC013197E231F10508F0FB
:101160004EC08827EE58FF4F8F4F0C94D81B8091AC
:1011700080008F7703C0809180008F7D80938000F6
:10118000089580918000877FF9CF84B58F7702C062
:1011900084B58F7D84BD08958091B0008F7703C0A2
:1011A0008091B0008F7D8093B00008958091900071
:1011B0008F7707C0809190008F7D03C08091900051
:1011C000877F8093900008958091A0008F7707C05B
:1011D0008091A0008F7D03C08091A000877F8093C5
:1011E000A0000895809120018F7707C08091200191
:1011F0008F7D03C080912001877F80932001089517
:101200001F93CF93DF93282F30E0F901E75EFE4F65
:101210008491F901E15AFE4FD491F901EB55FE4F4B
:10122000C491CC23C1F0162F811194DFEC2FF0E094
:10123000EE0FFF1FE551FE4FA591B4918FB7F894C3
:10124000111105C09C91ED2FE095E92302C0EC91AE
:10125000ED2BEC938FBFDF91CF911F910895CF932A
:10126000DF931F921F92CDB7DEB780EF9DE02A83F8
:1012700049830E9482194981642F80EF9DE00E947A
:1012800044192A81622F80EF9DE00E94441980EF6B
:101290009DE00F900F90DF91CF910C949E19AF922B
:1012A000BF92CF92DF92EF92FF920F931F93CF9353
:1012B000DF931F92CDB7DEB7C62E7901A12CB12CDA
:1012C00010E0DA2CD40EA016B106DCF46C2D80EF01
:1012D0009DE049830E9482196D2D80EF9DE00E9460
:1012E0004419F70161917F0180EF9DE00E9444194C
:1012F00080EF9DE00E949E19FFEFAF1ABF0A49815F
:10130000E0CF0F90DF91CF911F910F91FF90EF9061
:10131000DF90CF90BF90AF9008959FB7F894E1E72A
:10132000F0E080818D7F8083109291008FE0809328
:101330006D00E8E6F0E08081846080839FBF0895BF
:10134000FC011386148627E0208BE7CF9FB7F89423
:10135000809168008B7F80936800662319F022EAF1
:1013600038E002C021E832E13093990020939800E0
:1013700010929500109294001092900089E0809352
:1013800091008091710082608093710018BA9FBFB4
:101390000895FC0180E090E040E0DF01A80FB91F54
:1013A0002C91420F019685309105B9F785812FEF79
:1013B00030E0241B310990E02817390719F481E047
:1013C00086830895168208951F93CF93DF93EC01CF
:1013D0008091060180959F81913069F040F09230B4
:1013E00071F0933079F481FB112710F90CC083FB65
:1013F000112710F908C082FB112710F904C0182F1B
:10140000117001C010E02B85222319F02430F8F46C
:101410000CC060E0CE019ADF812F880F880F880F03
:101420008D878B858F5F8B8747C0812F43E050E08E
:10143000421B510901C0880F4A95EAF79D85892B07
:101440008D872330B9F58C3081F51E8233C020FDA5
:1014500002C01F872FC01E878F85811731F1388901
:101460004C8590E0373049F49695982F88279795CA
:101470008795FE01E40FF11D0AC0FE01E40FF11D86
:101480005081032E01C0880F0A94EAF7852B8083D0
:10149000315010F0388B04C087E0888B4F5F4C8749
:1014A0008C85863039F4CE0174DFCE01DF91CF9187
:1014B0001F9146CF2F5F2B87DF91CF911F9108950A
:1014C0001F920F920FB60F9211240BB60F922F930B
:1014D0003F934F935F936F937F938F939F93AF93BC
:1014E000BF93EF93FF93809106018F70809583FDEA
:1014F00008C082FD08C081FD08C080FF0DC082E0E9
:1015000005C080E003C081E001C083E08093E60A6B
:1015100061E08FED9AE01ADFFF91EF91BF91AF91FB
:101520009F918F917F916F915F914F913F912F91FB
:101530000F900BBE0F900FBE0F901F9018951F922B
:101540000F920FB60F9211240BB60F922F933F9369
:101550004F935F936F937F938F939F93AF93BF93BB
:10156000EF93FF938FED9AE02FDFFF91EF91BF9103
:10157000AF919F918F917F916F915F914F913F912B
:101580002F910F900BBE0F900FBE0F901F901895CC
:10159000EF92FF920F93CF93DF9300D0CDB7DEB7DA
:1015A0007C01562F822F66E00E94AA1B811101C088
:1015B00081E0443039F140F4413089F070F042303C
:1015C000C1F04330C1F02FC0463021F1E8F0473080
:1015D00021F14F3F41F5198224C0298322C029837C
:1015E000982F969596959A831B8291111CC04A83D9
:1015F0001AC0298305C019822F3311F42A8312C01F
:101600008A8310C019820AC019821A822F3339F4D2
:101610002B8309C029831A8202C029838A838B8382
:1016200002C01A821B822981202B29838A81802B68
:101630008A838B81082B0B835E3F59F058F550311C
:1016400009F052C040E1F70160818EED9AE007DEBB
:1016500055C003E09E012F5F3F4F41E0F7016081DD
:101660008EED9AE01CDE9E012F5F3F4F44E0F701B4
:1016700060818EED9AE013DE9E012F5F3F4F47E0C1
:10168000F70160818EED9AE00ADE9E012F5F3F4FE9
:101690004AE02FC003E09E012F5F3F4F41E0F7017A
:1016A00060818EED9AE0FBDD9E012F5F3F4F44E0AD
:1016B000F70160818EED9AE0F2DD9E012F5F3F4FD2
:1016C00047E0F70160818EED9AE0E9DD9E012F5F32
:1016D0003F4F4AE0F70160818EED9AE0E0DD9E0128
:1016E0002F5F3F4F4DE005C003E09E012F5F3F4F4E
:1016F000452FF70160818EED9AE0D1DD0F900F90BC
:101700000F90DF91CF910F91FF90EF9008950F937D
:101710001F93CF93DF93EC011C86198E1B81143627
:1017200021F400E026E243E079C01B34B8F066EB18
:10173000610F70E080E090E00E94B91A28E431EE79
:101740004AE150E40E94471B0E948D1A262F00E0B8
:1017500043E06AE0CE011CDF26E217C000E026E28B
:101760001233C8F04FEF6AE013DF6FEC610F70E0E7
:1017700080E090E00E94B91A28E431EE4AE150E49A
:101780000E94471B0E948D1A262F43E067E0CE017E
:10179000FFDE26E21AC01931F0F04FEF6AE0F8DE02
:1017A00026E24FEF67E0CE01F3DE68EE610F70E0F6
:1017B00080E090E00E94B91A28E431EE4AE150E45A
:1017C0000E94471B0E948D1A262F43E064E0CE0141
:1017D000DFDE26E21FC0112301F14FEF6AE0D8DE01
:1017E00026E24FEF67E0CE01D3DE26E24FEF64E062
:1017F000CE01CEDE61E0610F70E080E090E00E94FB
:10180000B91A28E431EE4AE150E40E94471B0E94D5
:101810008D1A262F43E061E002C040E06EEFCE015A
:10182000B7DEDF91CF911F910F9108956F927F9254
:101830008F929F92AF92BF92CF92DF92EF92FF92E0
:101840000F931F93CF93DF93EC01B62E942E602E4F
:10185000722E832E00E026E24FEF6EEF99DE81E0DC
:101860009816B9F0981658F082E09816C9F083E0FF
:1018700098121CC000E026E24B2D6AE015C000E083
:1018800026E24B2D67E0CE0183DE26E24B2D64E09D
:101890000BC000E026E24B2D6AE0CE0179DE01C0EC
:1018A00000E026E24B2D61E0CE0172DEA88A9D8623
:1018B00081E08C871F86BE869601A701662D712F59
:1018C000872D982DA4E60E94EA1B2C833D834E832E
:1018D0005F83688779878A879B87DF91CF911F9184
:1018E0000F91FF90EF90DF90CF90BF90AF909F90BF
:1018F0008F907F906F9008952F923F924F925F92BA
:101900006F927F928F929F92AF92BF92CF92DF920F
:10191000EF92FF920F931F93CF93DF93EC01180187
:1019200029013A014B018C85882309F4DAC0AC8087
:10193000BD80CE80DF80E884F9840A851B85910113
:10194000A201B301C4010E94F61B08F406C18D85F3
:10195000823030F000E026E24FEF6EEFCE0118DE6D
:101960008F8590E08830910508F0ABC0FC01882796
:10197000EC57FF4F8F4F0C94D81B8D85823041F070
:10198000833009F08DC000E026E24E856AE041C058
:1019900000E026E24E8561E015C08D85823069F059
:1019A000833009F07DC000E026E24E856AE0CE017A
:1019B000EFDD26E24E8567E005C000E026E24E85B9
:1019C00061E022C0CE01E4DD26E24E8564E066C01F
:1019D0008D858130A9F050F0843008F061C000E0BE
:1019E00026E24E8561E0CE01D3DD27C000E026E28D
:1019F0004FEF6EEFCE01CCDD26E24E856AE034C0BB
:101A000000E026E24FEF6EEFCE01C2DD26E24E850A
:101A100064E0CE01BDDD26E24E8567E03FC08D85E6
:101A2000823051F0833009F03BC000E026E24E8561
:101A300067E0CE01ADDD15C000E026E24E8564E032
:101A4000CE01A6DD08C08D85823021F0833041F5BE
:101A500000E007C000E026E24E8567E0CE0198DD99
:101A60000EC026E24E8564E0CE0192DD0CC08D856D
:101A7000823021F08330A1F400E005C000E026E2CE
:101A80004E856AE00BC026E24E8561E007C08D8579
:101A9000823030F400E026E24FEF6EEFCE0178DDC9
:101AA0008F858F5F8F870DC08889882339F000E08C
:101AB00026E245E06EEFCE016BDD02C0CE0127DEEF
:101AC0001C869101A201B301C401A4E60E94EA1B95
:101AD0002C833D834E835F83688779878A879B87C2
:101AE0003CC0898D8823C9F1A988BA88CB88DC8855
:101AF000ED88FE880F89188D9101A201B301C40100
:101B00000E94F61B50F18A8D882359F0888988231A
:101B100031F000E026E245E06EEFCE0139DD1A8EAD
:101B200008C000E026E24B8D6AE0CE0131DD81E0A5
:101B30008A8F9101A201B301C40126503F4F4F4F3C
:101B40005F4F6F4F7F4F8F4F9F4F298B3A8B4B8B40
:101B50005C8B6D8B7E8B8F8B988FDF91CF911F91DC
:101B60000F91FF90EF90DF90CF90BF90AF909F903C
:101B70008F907F906F905F904F903F902F9008953F
:101B8000CF93DF931F92CDB7DEB76983DC01ED9170
:101B9000FC910280F381E02D41E050E0BE016F5FD7
:101BA0007F4F19950F90DF91CF910895CF93DF93D9
:101BB000EC01898D9A8D009739F481E090E09B8348
:101BC0008A8380E090E00AC0FC011382128205D56E
:101BD000E98DFA8D22813381232B79F7DF91CF9123
:101BE0000895FC01818D928D009709F0B1C408958C
:101BF000CF93DF931F92CDB7DEB741E050E0BE0137
:101C00006F5F7F4F0ED3019719F4898190E002C076
:101C10008FEF9FEF0F90DF91CF910895FC01818DA1
:101C2000928D009709F0E4CF8FEF9FEF08950F9307
:101C30001F93CF93DF93FC01818D928D0097A9F0C4
:101C4000EF01D6DF8C010F3F8FEF180789F0898DE8
:101C50009A8DFC01428553856485758541505109F3
:101C600061097109E0D3C80105C080E090E002C0BD
:101C70008FEF9FEFDF91CF911F910F910895FC019E
:101C80001382128288EE93E0A0E0B0E08483958313
:101C9000A683B78380E292E091838083128E118EB7
:101CA00014860895DC015996ED91FC915A9730976E
:101CB00029F0628573858485958508956FEF7FEFA0
:101CC000CB010895DC015996ED91FC915A9730971C
:101CD00029F06389748985899689089560E070E0A8
:101CE000CB010895CF92DF92EF92FF92CF93DF93D3
:101CF000FC01218D328D232BC9F0EC01E3DF6B0158
:101D00007C01CE01CFDFA7019601261B370B480BC4
:101D1000590BDA01C901811530E89307A105B10516
:101D200038F08FEF9FE7A0E0B0E002C080E090E0E5
:101D3000DF91CF91FF90EF90DF90CF900895ECE08E
:101D4000FBE0158216821186138682E090E0A0E007
:101D5000B0E084879587A687B78713A215A614A637
:101D600080E392E093A782A717A608952091810DA2
:101D7000222399F04FB7F8942091810D213059F426
:101D80002DB320937F0D3DB32091800D209523230B
:101D90002DBB4FBF02C040937F0D8CBD9DBD0895EC
:101DA0008EBD00000DB407FEFDCF8EB508958FEFF8
:101DB000F7CF8091810D882361F09FB7F89420912F
:101DC000810D80917F0D213019F48DBB9FBF089547
:101DD0008FBF089561E0FC01848112DA8091550B78
:101DE000882319F01092550BE4CF0895CF93DF9319
:101DF000EC018091550B811108C081E08093550B57
:101E00008091560B9091570BB1DF60E08C81DF9190
:101E1000CF91F6C9CF93DF93EC018E81882379F0BF
:101E20008F8198859C012F5F3F4F38872F838230A9
:101E3000924010F4BCDFF4CFCE01CCDF1E82DF91E4
:101E4000CF9108950F931F93CF93DF93EB01CCD8DD
:101E50008B01ADDF8F3F41F0C7D8601B710B6C1752
:101E60007D07B8F380E001C081E0DF91CF911F9141
:101E70000F910895CF92DF92FF920F931F93CF930C
:101E8000DF9300D01F92CDB7DEB76C01F62E298309
:101E90003A834B835C83BEDFC601A8DF6CE271E04E
:101EA000C601D0DF8F2D80647BDF08E110E05C810C
:101EB0004B813A812981DA01C901002E04C0B6950F
:101EC000A795979587950A94D2F729833A834B83F0
:101ED0005C8366DF0850110929813A814B815C815E
:101EE000083F8FEF180739F7FF2029F0E8E0FE12CE
:101EF00004C087E803C085E901C08FEF51DF10E01F
:101F000056DFF601828787FF04C01F3F11F01F5F75
:101F1000F7CF0F900F900F900F90DF91CF911F91FF
:101F20000F91FF90DF90CF9008950F931F93CF9361
:101F3000DF93EC0159D88B013ADF8A878F3F41F458
:101F400053D8601B710B6D327140B0F38FE003C04A
:101F50008E3F31F08DE08D83CE013CDF80E001C00B
:101F600081E0DF91CF911F910F910895CF92DF9281
:101F7000EF92FF920F931F93CF93DF93EC016901D0
:101F8000C801820F931F8130924008F057C08E81A4
:101F9000882371F088819981AA81BB8148175907EC
:101FA0006A077B0729F48F819885C816D90600F542
:101FB000488359836A837B838B85833039F089E03A
:101FC000440F551F661F771F8A95D1F79A01AB0101
:101FD00061E1CE014FDF882319F083E08D832EC0AD
:101FE000CE01A3DF882351F118861F8281E08E8302
:101FF0008F8198858C159D0538F4D9DE8F81988561
:10200000019698878F83F4CF6701E00EF11ECE14FE
:10201000DF0429F0CCDEF60181936F01F8CF8F81C8
:102020009885080F191F18870F838985882319F051
:102030000115124038F0CE01EDDE04C0CE01CADE3B
:1020400080E001C081E0DF91CF911F910F91FF905F
:10205000EF90DF90CF900895EF92FF920F931F9330
:102060000115110511F082DF01C081E01F910F9170
:10207000FF90EF900895EF92FF920F931F937901D5
:1020800000E012E020E030E071DF1F910F91FF903F
:10209000EF900895CF92DF92EF92FF920F931F93EC
:1020A000CF93DF931F921F92CDB7DEB78C01862F9F
:1020B00049835A8375DE4981C42E5A81D52E760113
:1020C0008EEFF81AF60181916F016ADECE14DF04FB
:1020D000C9F78FEF65DE8FEF63DE69DEF801828777
:1020E000982F9F71953031F081E18583C80172DEB0
:1020F00080E001C081E00F900F90DF91CF911F91A0
:102100000F91FF90EF90DF90CF9008950F931F9362
:10211000CF93DF93EC0189014115510561057105EC
:1021200011F482E12DC08B85833039F089E0440FB2
:10213000551F661F771F8A95D1F79A01AB0168E199
:10214000CE0198DE882311F084E01AC0A8016EEF5A
:10215000CE01A0DF8823A9F068E572E0CE0172DE2F
:10216000811102C085E10CC020E030E0A9016DE0E2
:10217000CE0180DE811103C01ADE882331F084E1B4
:102180008D83CE0127DE80E003C0CE0123DE81E017
:10219000DF91CF911F910F910895E6E5FBE080E577
:1021A000808311820895CF93DF93EC019C012A5F15
:1021B0003F4F41E050E060E070E08B8D9C8D4BD54F
:1021C0008823A1F08F89988DA98DBA8D892B8A2BB0
:1021D0008B2B59F48E819F81A885B9858F8B988F21
:1021E000A98FBA8F8C8180688C8381E0DF91CF9139
:1021F0000895CF93DF93EC01462F6E857F85888904
:102200009989CED3882341F08A8920E2829FC00138
:1022100011248F59944F02C080E090E0DF91CF915C
:1022200008952F923F924F925F926F927F928F927A
:102230009F92AF92BF92CF92DF92EF92FF920F9355
:102240001F93CF93DF93EC015B014A018D818111D4
:1022500003C08FEF9FEFD4C08C8180FFFACF4B88F3
:102260005C886D887E884A855B856C857D85C40128
:10227000A0E0B0E093018201041B150B260B370B85
:10228000081719072A073B0718F44201841A950A10
:1022900024011E0126E0220E311C4114510409F4D0
:1022A0007DC04A855B856C857D856A0181E0D82289
:1022B000ED818A019B0189E0369527951795079551
:1022C0008A95D1F78B8D9C8DE23061F4FC01828D73
:1022D000938DA48DB58DBC01CD01600F711F821F40
:1022E000931F3EC0FC0174807A947022C114D10403
:1022F000C1F4711016C0452B462B472B49F48F892A
:10230000988DA98DBA8D8E839F83A887B98709C0C0
:102310004E815F816885798591017BD3882309F49B
:1023200098CFEB8DFC8D8E819F81A885B985029712
:10233000A109B109058404C0880F991FAA1FBB1FFA
:102340000A94D2F74685578560897189840F951F55
:10235000A61FB71FBC01CD01670D711D811D911D09
:1023600020E032E02C193D0932012415350508F42E
:1023700039012C8126FD04C06114F2E07F0671F55D
:102380000091010210910202209103023091040297
:10239000601771078207930719F420C0C40130C089
:1023A000750183019601AB01BC0180915F0B909197
:1023B000600B52DE882309F44CCFA60CB71C8A852B
:1023C0009B85AC85BD85860D971DA11DB11D8A8796
:1023D0009B87AC87BD87461857085FCF40E0E0D2A7
:1023E000882309F436CFF601EF59F44FD501CF0118
:1023F000860D971DE817F90701F321912D93FACF68
:10240000DF91CF911F910F91FF90EF90DF90CF90D0
:10241000BF90AF909F908F907F906F905F904F9004
:102420003F902F9008958F929F92AF92BF92CF923C
:10243000DF92EF92FF920F931F93CF93DF93EC0104
:102440008D81811102C080E076C00B891C892D89A5
:102450003E890417150726073707A8F36A017B0191
:10246000823029F4CA86DB86EC86FD860DC0C11455
:10247000D104E104F10451F41E821F8218861986EA
:102480001A861B861C861D8681E055C08A849B8423
:10249000AC84BD84EB8DFC8D258530E0275F3F4FFC
:1024A000B501A4014150510961097109022E04C00E
:1024B00076956795579547950A94D2F7D701C60147
:1024C0000197A109B10904C0B695A795979587957D
:1024D0002A95D2F784179507A607B70720F0892811
:1024E0008A288B2849F44F89588D698D7A8D4E83BF
:1024F0005F836887798704C0841B950BA60BB70B95
:102500004C015D018E010A5F1F4F81149104A104EB
:10251000B10409F4A7CF4E815F8168857985980160
:102520008B8D9C8D76D291E0891A9108A108B10813
:102530008111EBCF88CFDF91CF911F910F91FF9049
:10254000EF90DF90CF90BF90AF909F908F900895C5
:102550000F931F93CF93DF93EC018D818823B9F103
:102560008C8187FF2FC061E0CE0143DE8C01892B77
:1025700071F18D81823048F48B899C89AD89BE8947
:10258000F801848F958FA68FB78F8F89988DA98D2D
:10259000BA8DF801938F828FB58BA48BE091580B85
:1025A000F091590B309759F0B8016A5E7F4FC8011E
:1025B00048961995F801808D918D938B828B8C8133
:1025C0008F778C83DF91CF911F910F91B0C180E005
:1025D000DF91CF911F910F9108952F923F924F92CB
:1025E0005F926F927F928F929F92AF92BF92CF92A3
:1025F000DF92EF92FF920F931F93CF93DF9300D060
:102600001F92CDB7DEB78C016B013A01DC01159644
:102610008C9115978130C1F414968C9181FF14C070
:1026200082FF1CC0F80143895489658976898285B7
:102630009385A485B58584179507A607B70771F01C
:10264000C801F1DE81110AC081E090E0D801139643
:102650009C938E93129780E090E042C1430183C027
:10266000D8015B968D919C915C97FC0154802FEF73
:10267000250D1A012B0139E056944794379427947D
:102680003A95D1F7522E52207A01F1E0FF225520DF
:1026900009F475C080E092E08E199F0954018815F5
:1026A000990508F45C01D8015B962D913C915C97EB
:1026B00016968D919D910D90BC91A02D0297A10928
:1026C000B109F901058404C0880F991FAA1FBB1F17
:1026D0000A94D2F74685578560897189840F951FC2
:1026E000A61FB71F9C01AD01250D311D411D511DB8
:1026F00019012A01A11432E0B30609F085C08091C6
:10270000010290910202A0910302B091040282158D
:102710009305A405B50559F48FEF9FEFDC01809375
:10272000010290930202A0930302B0930402960167
:10273000B201A10180915F0B9091600BE7DC8823CF
:1027400009F482CF9EEFD91A8A189B08F801828576
:102750009385A485B5858A0D9B1DA11DB11D82871A
:102760009387A487B587D8011A964D915D916D9195
:102770007C911D978114910409F072CF83C0E114FC
:10278000F10409F087CF16964D915D916D917C9182
:102790001997411551056105710559F457968D91A9
:1027A0009D910D90BC91A02D0097A105B10531F52B
:1027B00020C09E012F5F3F4F2CD1882309F44CCFBE
:1027C00089819A81AB81BC81F801238D348DF90117
:1027D0002789203129F048EF5FEF6FEF7FE004C0D9
:1027E00048EF5FEF60E070E084179507A607B70732
:1027F00028F0C801D8DC81114DCF26CFF80186839F
:102800009783A087B18746CFE114F10421F5D80161
:102810001A964D915D916D917C911D9753968D9176
:102820009D910D90BC91A02D481759076A077B0711
:1028300090F07DD0882309F407CF209201023092D6
:102840000202409203025092040280915E0B81606A
:1028500080935E0B07C041E0C201B101A1D0882383
:1028600009F4F2CED601F701EF59F44FCF018A0DEA
:102870009B1DE817F90719F02D912193FACFCA0C87
:10288000DB1C62CF5396CD90DD90ED90FC90569777
:1028900014968C91C416D506E606F70640F4F801A6
:1028A000438B548B658B768B806884830DC020911D
:1028B000580B3091590B232B39F06114710421F01E
:1028C0008068D80114968C93F801848183FD02C03E
:1028D000C30106C0C8013CDE882309F4B5CEF8CF99
:1028E0000F900F900F900F90DF91CF911F910F914C
:1028F000FF90EF90DF90CF90BF90AF909F908F9020
:102900007F906F905F904F903F902F900895CF935E
:10291000DF931F92CDB7DEB7698341E050E0BE017F
:102920006F5F7F4F5ADE0F90DF91CF9108958091B6
:102930005E0B882399F1409101025091020260914F
:1029400003027091040221E63BE080915F0B9091BD
:10295000600BDCDB811102C080E0089540915A0BCE
:1029600050915B0B60915C0B70915D0B41155105B3
:102970006105710589F021E63BE080915F0B909144
:10298000600BC4DB882341F310925A0B10925B0B4F
:1029900010925C0B10925D0B10925E0B81E008951B
:1029A000CF92DF92EF92FF92CF936B017C01C42F05
:1029B0008091010290910202A0910302B091040261
:1029C0008C159D05AE05BF05C1F0B1DF811102C0B8
:1029D00080E019C021E63BE0B701A60180915F0BC2
:1029E0009091600B48DB882399F3C0920102D0924A
:1029F0000202E0920302F092040280915E0BC82B67
:102A0000C0935E0B81E0CF91FF90EF90DF90CF906D
:102A100008958F929F92AF92BF92CF92DF92EF92E2
:102A2000FF920F931F93CF93DF93FC0181859285D3
:102A3000A385B4850196A11DB11D84179507A6072E
:102A4000B70710F480E05BC083899489A589B689B3
:102A5000C789C03129F4852E962EA72EBB2409C024
:102A60004A015B01C7E0B694A79497948794CA95EE
:102A7000D1F7E9016A017B018F01BC01CD01680D2D
:102A8000791D8A1D9B1D8090010290900202A090EA
:102A90000302B0900402681579058A059B0599F434
:102AA000F80187898031A1F4B701A601552766276F
:102AB0007727440F551FFA01EF59F44F8081918118
:102AC000A0E0B0E017C040E06BDF8111E9CFBACFE2
:102AD000B701A6014F77552766277727440F551F63
:102AE000440F551FFA01EF59F44F80819181A28163
:102AF000B381BF7088839983AA83BB8381E0DF9110
:102B0000CF911F910F91FF90EF90DF90CF90BF90EA
:102B1000AF909F908F9008954F925F926F927F92A7
:102B20008F929F92AF92BF92CF92DF92EF92FF92DD
:102B30000F931F93CF93DF93EC016A017B01280170
:102B40003901423051056105710510F480E072C011
:102B500089859A85AB85BC850196A11DB11D841719
:102B60009507A607B70790F38B889C88AD88BE8829
:102B70008F89803129F4BB27AF2D9E2D8D2D09C063
:102B8000DB01CA0147E0B695A795979587954A95C9
:102B9000D1F7880E991EAA1EBB1E8091010290914A
:102BA0000202A0910302B091040288169906AA06B7
:102BB000BB0679F48F89803199F4DD24EE24FF245B
:102BC000C601880F991FFC01EF59F44F51824082D2
:102BD00018C040E0C501B401E3DE8111EBCFB6CFF0
:102BE000E894C7F8DD24EE24FF24C601880F991F5E
:102BF000880F991FFC01EF59F44F40825182628285
:102C0000738280915E0B816080935E0B8A89823033
:102C100080F08D819E81AF81B885880E991EAA1E95
:102C2000BB1E80925A0B90925B0BA0925C0BB092F1
:102C30005D0B81E0DF91CF911F910F91FF90EF909D
:102C4000DF90CF90BF90AF909F908F907F906F90CC
:102C50005F904F9008952F923F924F925F926F92A4
:102C60007F929F92AF92BF92CF92DF92EF92FF92AC
:102C70000F931F93CF93DF93CDB7DEB760970FB657
:102C8000F894DEBF0FBECDBF5C0149875A876B87C2
:102C90007C871901D901CD90DD90ED90FC90C11495
:102CA000D104E104F10431F0BFEFCB1ADB0AEB0AE7
:102CB000FB0A10C0FC01C080D180E280F38099241F
:102CC000939409851A852B853C85013011052105D2
:102CD000310509F0912CF50181859285A385B48594
:102CE0008C019D010F5F1F4F2F4F3F4F0D871E8798
:102CF0002F87388B260137011D821E821F8218867E
:102D0000F50181859285A385B4850D811E812F8172
:102D10003885081719072A073B0708F054C02D8586
:102D20003E854F855889241535054605570550F4CD
:102D300082E0482E512C612C712C92E0C92ED12CAE
:102D4000E12CF12C9E012F5F3F4FB301A201C50181
:102D500060DE8823C1F149815A816B817C81D30176
:102D6000C2010196A11DB11D452B462B472B19F021
:102D70006C017D010FC0AC01BD014C195D096E09EC
:102D80007F0909851A852B853C8540175107620705
:102D9000730779F02D813E814F8158852F5F3F4F1A
:102DA0004F4F5F4F2D833E834F8358872C013D014A
:102DB000A7CF0FEF1FEF2FEF3FE0B301A201C50137
:102DC000ABDE811117C080E03FC0D301C201019783
:102DD000A109B1098D839E83AF83B88793018201D6
:102DE000AC01BD01C50198DE882369F34D805E808A
:102DF0006F807884C414D504E604F70430F3D1015D
:102E00004D915D916D917C91411551056105710563
:102E100099F4F101C082D182E282F382992099F083
:102E2000FFEFCF1ADF0AEF0AFF0AD501CD92DD923C
:102E3000ED92FC92139707C097018601C5016CDEE5
:102E40008111E7CFC0CF81E060960FB6F894DEBF66
:102E50000FBECDBFDF91CF911F910F91FF90EF90EB
:102E6000DF90CF90BF90AF909F907F906F905F90DA
:102E70004F903F902F90089584E69DE00C943F0E74
:102E80000F93413208F046C09091EF0D9111FCCFA5
:102E900032E03093EF0D0093ED0D3FEF3093820D54
:102EA0001092C70D4093C60DFB0168EC7DE0DB017D
:102EB0003A2F361B341718F431913D93F9CF109205
:102EC000EE0D3091EE0D880F832B8093EE0D8091E7
:102ED000EC0D813041F41092EC0D8091EE0D809359
:102EE000BB0085EC01C085EE8093BC00222321F05D
:102EF0008091EF0D8230D1F38091820D8F3F79F078
:102F00008091820D803241F08091820D803331F0CA
:102F100094E005C091E003C092E001C093E0892FE6
:102F20000F910895613298F42091EF0D243089F4C7
:102F30006093A40DFC0126EA3DE0D9018A2F821B93
:102F4000861718F481918D93F9CF80E0089581E080
:102F5000089582E0089585ED8093BC008091BC00C7
:102F600084FDFCCF1092EF0D089585EC8093BC009A
:102F70001092EF0D08951F920F920FB60F92112429
:102F80000BB60F922F933F934F935F936F937F9363
:102F90008F939F93AF93BF93EF93FF938091B9006B
:102FA000887F803609F49CC068F5883209F45BC0DC
:102FB00090F4803109F454C038F4882309F4F3C044
:102FC000883009F44DC0F2C0883109F44CC0803219
:102FD00009F45DC0EBC0803409F468C048F4803364
:102FE00009F455C0883309F0E1C08093820DA7C071
:102FF000803509F44FC0883509F45DC0883409F084
:10300000D5C0D3C0883909F4C4C0A8F4883709F4FE
:1030100067C038F4883609F463C0803709F460C0AB
:10302000C5C0883809F4B5C0803909F45FC080385C
:1030300009F0BCC05BC0803B09F483C038F4803A1F
:1030400009F466C0883A09F47CC0B0C0803C09F439
:10305000A4C0883C09F4A1C0883B09F487C0A6C07D
:103060008091EE0D10C09091C70D8091C60D9817FC
:1030700070F5E091C70D81E08E0F8093C70DF0E0F1
:10308000E853F24F80818093BB0085EC83C080932E
:10309000820D8BC0E091C70D81E08E0F8093C70D2C
:1030A0008091BB00F0E0E853F24F80839091C70D10
:1030B0008091C60D6BC0E091C70D81E08E0F8093AB
:1030C000C70D8091BB00F0E0E853F24F8083809100
:1030D000ED0D81116AC081E08093EC0D84EA5EC041
:1030E00083E08093EF0D1092830DCFCF8091830DFD
:1030F000803208F04EC0E091830D81E08E0F809306
:10310000830D8091BB00F0E0EC57F24F8083BDCF80
:103110008091830D803230F4E091830DF0E0EC5724
:10312000F24F108218DF6091830D70E0E091E80D9E
:10313000F091E90D84E89DE019951092830D15DF5B
:1031400035C084E08093EF0D1092A50D1092A40D70
:10315000E091EA0DF091EB0D19958091A40D81118C
:1031600005C081E08093A40D1092A60DE091A50DFD
:1031700081E08E0F8093A50DF0E0EA55F24F80813B
:103180008093BB009091A50D8091A40D981708F431
:103190007CCF85E88093BC0009C085EC8093BC009F
:1031A0001092EF0D03C01092820DD5DEFF91EF91CA
:1031B000BF91AF919F918F917F916F915F914F914F
:1031C0003F912F910F900BBE0F900FBE0F901F904D
:1031D00018958091200E90E02091210E821B91097C
:1031E00008959091210E8091200E981750F4E92FA8
:1031F000F0E0EE5DF14F208130E09F5F9093210E73
:1032000002C02FEF3FEFC9010895E091210E809198
:10321000200EE81730F4F0E0EE5DF14F808190E091
:1032200008958FEF9FEF08950895CF92DF92EF9268
:10323000FF920F931F93CF93DF937C01262F972F3D
:103240008A018091FC0D882391F0C62FD72F6E0143
:10325000C40ED51ECC15DD0569F06991D701ED913D
:10326000FC910190F081E02DC7011995F3CF642FF7
:10327000822F58DEC801DF91CF911F910F91FF90EF
:10328000EF90DF90CF900895CF93DF931F92CDB74B
:10329000DEB769832091FC0D2223D1F02091FD0D32
:1032A000203240F021E030E0FC013383228380E0D3
:1032B00090E014C08091FE0DE82FF0E0E150F24F55
:1032C000998190838F5F8093FE0D8093FD0D04C0E4
:1032D00061E0CE01019626DE81E090E00F90DF9163
:1032E000CF910895FC011382128288EE93E0A0E052
:1032F000B0E084839583A683B78388E392E09183CB
:103300008083089581E08093FC0D60931F0E1092DE
:10331000FE0D1092FD0D08950F93062F21E04091B0
:10332000FD0D6FEF7DE080911F0EAADD1092FE0D66
:103330001092FD0D1092FC0D0F91089561E0ECCFFD
:1033400080EF9DE0CFCF789488E080930701809153
:10335000080188608093080168EE73E080E090E0E7
:103360000E94230880910801877F8093080168EEFE
:1033700073E080E090E00E942308E9CF2F923F9213
:103380004F925F926F927F928F929F92AF92BF9275
:10339000CF92DF92EF92FF920F931F930E94F40758
:1033A0001B012C016093D40E3092D50E4092D60EA4
:1033B0005092D70E1092D80E1092D90E1092DA0EAB
:1033C0001092DB0EA090CC0EB090CD0EC090CE0E21
:1033D000D090CF0EE090D00EF090D10E0091D20E92
:1033E0001091D30E9B01A20160E070E080E090E0BC
:1033F000FDD189F180F124523A4F4F4F5F4F6F4F0B
:103400007F4F8F4F9F4F2093CC0E3093CD0E409324
:10341000CE0E5093CF0E6093D00E7093D10E80934A
:10342000D20E9093D30E80910502843018F0109242
:10343000050203C08F5F80930502A12C6101720118
:1034400000E010E020E030E04091050260E080EF15
:103450009AE00E94160C8091E50A882321F0809161
:10346000DC0E843029F50091D40E1091D50E2091F8
:10347000D60E3091D70E4091D80E5091D90E609152
:10348000DA0E7091DB0E80EF9AE00E947C0C1F91A7
:103490000F91FF90EF90DF90CF90BF90AF909F90F3
:1034A0008F907F906F905F904F903F902F900895F6
:1034B000F89487E08093420E8091DF0A8093430E58
:1034C0008091E00A8093440E8091E10A8093450E3A
:1034D0008091E20A8093460E8091E30A8093470E22
:1034E0008091E60A809305021092E50A789400E044
:1034F00026E243E06DE080EF9AE00E94C80A64EFA4
:1035000071E080E090E00E94230826E24FEF6DE03A
:1035100080EF9AE00E94C80AA6CF98D088F09F5703
:1035200090F0B92F9927B751A0F0D1F0660F771F0F
:10353000881F991F1AF0BA95C9F712C0B13081F0EF
:103540009FD0B1E008959CC0672F782F8827B85F7F
:1035500039F0B93FCCF3869577956795B395D9F750
:103560003EF490958095709561957F4F8F4F9F4F5A
:103570000895E89409C097FB3EF490958095709566
:1035800061957F4F8F4F9F4F9923A9F0F92F96E9AF
:10359000BB279395F695879577956795B795F11124
:1035A000F8CFFAF4BB0F11F460FF1BC06F5F7F4FC1
:1035B0008F4F9F4F16C0882311F096E911C07723D3
:1035C00021F09EE8872F762F05C0662371F096E8DC
:1035D000862F70E060E02AF09A95660F771F881FAB
:1035E000DAF7880F9695879597F9089597F99F6769
:1035F00080E870E060E008959FEF80EC089500247B
:103600000A941616170618060906089500240A9447
:1036100012161306140605060895092E0394000CCD
:1036200011F4882352F0BB0F40F4BF2B11F460FF5C
:1036300004C06F5F7F4F8F4F9F4F089557FD905885
:10364000440F551F59F05F3F71F04795880F97FB66
:10365000991F61F09F3F79F0879508951216130620
:103660001406551FF2CF4695F1DF08C0161617064F
:103670001806991FF1CF8695710561050894089584
:10368000E894BB2766277727CB0197F908950BD0DD
:10369000C4CFB5DF28F0BADF18F0952309F0A6CF24
:1036A000ABCF1124EECFCADFA0F3959FD1F3950FD6
:1036B00050E0551F629FF001729FBB27F00DB11DB6
:1036C000639FAA27F00DB11DAA1F649F6627B00D46
:1036D000A11D661F829F2227B00DA11D621F739F2F
:1036E000B00DA11D621F839FA00D611D221F749F3D
:1036F0003327A00D611D231F849F600D211D822F84
:10370000762F6A2F11249F5750408AF0E1F08823CA
:103710004AF0EE0FFF1FBB1F661F771F881F9150D7
:103720005040A9F79E3F510570F060CFAACF5F3F90
:10373000ECF3983EDCF3869577956795B795F7950A
:10374000E7959F5FC1F7FE2B880F911D9695879592
:1037500097F90895991B79E004C0991F961708F00E
:10376000961B881F7A95C9F780950895A1E21A2EB5
:10377000AA1BBB1BFD010DC0AA1FBB1FEE1FFF1F15
:10378000A217B307E407F50720F0A21BB30BE40B65
:10379000F50B661F771F881F991F1A9469F76095AC
:1037A0007095809590959B01AC01BD01CF01089566
:1037B000EE0FFF1F881F8BBF0790F691E02D199425
:1037C0001ED0A59F900DB49F900DA49F800D911DBC
:1037D000112408950024A7FD00942A0F301D401DD8
:1037E000501D601D701D801D901D08952A153B05FC
:1037F0004C055D056E057F05800791070895A29F22
:10380000B001B39FC001A39F700D811D1124911DB4
:10381000B29F700D811D1124911D0895F894FFCF62
:10382000FFFFFFFFFFFF00000000DE01CA043D01B3
:1038300052014401BD0100000000730400000000BB
:10384000C00DD60D720E0E0E170EF10D0000000009
:103850008714CA040000000044191519E918F1186A
:043860000519141919
:00000001FF
